:1000000055C000006EC000006CC000006AC0000057
:1000100068C0000066C0000064C0000062C000004C
:1000200060C000005EC00000C9C00000EEC000005B
:1000300058C0000056C0000054C0000052C000006C
:1000400050C000004EC000004CC000004AC000007C
:1000500048C0000046C0000044C0000042C000008C
:1000600040C000003EC000003CC000003AC000009C
:1000700038C0000036C0000034C0000032C00000AC
:1000800030C000002EC000002CC000002AC00000BC
:1000900028C0000026C0000024C0000022C00000CC
:1000A00020C000001EC000001CC0000011241FBEA4
:1000B000CFEFDAE0DEBFCDBF11E0A0E0B1E0E2E9D2
:1000C000F3E002C005900D92A230B107D9F721E00C
:1000D000A2E0B1E001C01D92A330B207E1F738D130
:1000E00056C18ECF8D9A882351F084E08A95F1F71E
:1000F00000008D9882E08A95F1F700C0089582E0B3
:100100008A95F1F700008D9884E08A95F1F7F5CF94
:10011000EF92FF921F93CF93DF93182FC7E0D0E0A9
:10012000EE24E394F12CC7010C2E01C0880F0A9431
:10013000EAF78123D7DF2197B0F7DF91CF911F91A5
:10014000FF90EF900895CF93DF93D62FC42FE0DF79
:100150008D2FDEDF8C2FDCDF2FEF80E792E0215048
:1001600080409040E1F700C00000DF91CF910895FA
:100170008091D70081608093D70080EA8093D80077
:1001800089B5806189BD89B5826089BD09B400FEE9
:10019000FDCF80E98093D8008091D8008F7D809337
:1001A000D8008091E000887F8093E0008091E20099
:1001B0008C608093E2001092020108951F921FB696
:1001C0001F9211248F938091E10083FF14C08091CE
:1001D000E100877F8093E1001092E90081E0809345
:1001E000EB001092EC0082E28093ED0088E08093B7
:1001F000F000109202018091E10082FD80910201E5
:100200008F911F901FBE1F9018951F921FB61F92AF
:1002100011242F933F934F938F939F931092E90054
:100220008091E80083FF2EC03091F1002091F10011
:100230008091F1009091F1004091F1004091F10026
:100240004091F1004091F10042EF4093E8002630E8
:1002500059F4303829F4892F99270197029790F0A3
:1002600081E28093EB000EC02530A9F43111F8CF64
:100270002EEF2093E8002091E80020FFFCCF80685B
:100280008093E3009F918F914F913F912F911F9009
:100290001FBE1F9018952930C9F43111E1CF80930A
:1002A00002018EEF8093E80083E08093E90081E013
:1002B0008093EB0081EC8093EC0086E08093ED006E
:1002C0008EE18093EA001092EA00DCCF283081F4BE
:1002D000303831F68091E80080FFFCCF8091020138
:1002E0008093F1008091E8008E7F8093E800CACF70
:1002F0002111B6CF8091E80080FFFCCF1092F10071
:100300001092F100EFCF1092CD0089E18093CC00E4
:1003100086E08093CA0088E18093C9000895909197
:10032000C80095FFFCCF8093CE0008958091C8004F
:1003300087FFFCCF8091CE000895CF93DF93EC012F
:100340008991811103C0DF91CF910895E8DFF8CF43
:100350003F9A479886988E9A859A40E050E06FEFD2
:1003600070E080E090E0EFDECEDF7E990EC0479A2D
:1003700080E091E0E2DF2FEF80E792E021508040C3
:100380009040E1F700C00000F0CF4798F4CFF89418
:02039000FFCF9D
:02039200620007
:00000001FF
